{
  "contractName": "VotingContract",
  "abi": [
    {
      "inputs": [],
      "stateMutability": "nonpayable",
      "type": "constructor"
    },
    {
      "anonymous": false,
      "inputs": [
        {
          "indexed": false,
          "internalType": "string",
          "name": "_name",
          "type": "string"
        }
      ],
      "name": "AddedCandidate",
      "type": "event"
    },
    {
      "anonymous": false,
      "inputs": [
        {
          "indexed": false,
          "internalType": "uint256",
          "name": "id",
          "type": "uint256"
        },
        {
          "indexed": false,
          "internalType": "string",
          "name": "_name",
          "type": "string"
        }
      ],
      "name": "Voted",
      "type": "event"
    },
    {
      "inputs": [],
      "name": "candidateCount",
      "outputs": [
        {
          "internalType": "uint256",
          "name": "",
          "type": "uint256"
        }
      ],
      "stateMutability": "view",
      "type": "function",
      "constant": true
    },
    {
      "inputs": [
        {
          "internalType": "uint256",
          "name": "",
          "type": "uint256"
        }
      ],
      "name": "candidateLookup",
      "outputs": [
        {
          "internalType": "uint256",
          "name": "id",
          "type": "uint256"
        },
        {
          "internalType": "string",
          "name": "name",
          "type": "string"
        },
        {
          "internalType": "uint256",
          "name": "voteCount",
          "type": "uint256"
        }
      ],
      "stateMutability": "view",
      "type": "function",
      "constant": true
    },
    {
      "inputs": [],
      "name": "electionState",
      "outputs": [
        {
          "internalType": "enum VotingContract.State",
          "name": "",
          "type": "uint8"
        }
      ],
      "stateMutability": "view",
      "type": "function",
      "constant": true
    },
    {
      "inputs": [],
      "name": "moderator",
      "outputs": [
        {
          "internalType": "address",
          "name": "",
          "type": "address"
        }
      ],
      "stateMutability": "view",
      "type": "function",
      "constant": true
    },
    {
      "inputs": [
        {
          "internalType": "address",
          "name": "",
          "type": "address"
        }
      ],
      "name": "votes",
      "outputs": [
        {
          "internalType": "string",
          "name": "name",
          "type": "string"
        }
      ],
      "stateMutability": "view",
      "type": "function",
      "constant": true
    },
    {
      "inputs": [
        {
          "internalType": "string",
          "name": "_name",
          "type": "string"
        }
      ],
      "name": "addCandidate",
      "outputs": [
        {
          "internalType": "bool",
          "name": "",
          "type": "bool"
        }
      ],
      "stateMutability": "nonpayable",
      "type": "function"
    },
    {
      "inputs": [
        {
          "internalType": "uint256",
          "name": "_id",
          "type": "uint256"
        }
      ],
      "name": "getCandidate",
      "outputs": [
        {
          "internalType": "uint256",
          "name": "",
          "type": "uint256"
        },
        {
          "internalType": "string",
          "name": "",
          "type": "string"
        }
      ],
      "stateMutability": "view",
      "type": "function",
      "constant": true
    },
    {
      "inputs": [],
      "name": "getCandidates",
      "outputs": [
        {
          "internalType": "string[]",
          "name": "",
          "type": "string[]"
        },
        {
          "internalType": "uint256[]",
          "name": "",
          "type": "uint256[]"
        }
      ],
      "stateMutability": "view",
      "type": "function",
      "constant": true
    },
    {
      "inputs": [],
      "name": "startVoting",
      "outputs": [],
      "stateMutability": "nonpayable",
      "type": "function"
    },
    {
      "inputs": [],
      "name": "haltVoting",
      "outputs": [],
      "stateMutability": "nonpayable",
      "type": "function"
    },
    {
      "inputs": [
        {
          "internalType": "uint256",
          "name": "_id",
          "type": "uint256"
        },
        {
          "internalType": "string",
          "name": "_name",
          "type": "string"
        }
      ],
      "name": "vote",
      "outputs": [
        {
          "internalType": "bool",
          "name": "",
          "type": "bool"
        }
      ],
      "stateMutability": "nonpayable",
      "type": "function"
    }
  ],
  "bytecode": "0x608060405234801561001057600080fd5b50336000806101000a81548173ffffffffffffffffffffffffffffffffffffffff021916908373ffffffffffffffffffffffffffffffffffffffff1602179055506000600460006101000a81548160ff0219169083600281111561009d577f4e487b7100000000000000000000000000000000000000000000000000000000600052602160045260246000fd5b02179055506000600381905550611793806100b96000396000f3fe608060405234801561001057600080fd5b50600436106100c6576000357c010000000000000000000000000000000000000000000000000000000090048063387439041161008e5780633874390414610173578063462e91ec1461019157806398c4ce56146101c1578063a9a981a3146101cb578063abff6e7a146101e9578063d8bff5a51461021b576100c6565b806306a49fce146100cb5780631ec6b60a146100ea5780632280043d146100f4578063241084751461011257806335b8e82014610142575b600080fd5b6100d361024b565b6040516100e1929190611150565b60405180910390f35b6100f26104a9565b005b6100fc61058a565b60405161010991906111a2565b60405180910390f35b61012c60048036038101906101279190610e99565b61059d565b6040516101399190611187565b60405180910390f35b61015c60048036038101906101579190610e70565b61086e565b60405161016a92919061127a565b60405180910390f35b61017b61093d565b6040516101889190611135565b60405180910390f35b6101ab60048036038101906101a69190610e2f565b610961565b6040516101b89190611187565b60405180910390f35b6101c9610a92565b005b6101d3610b73565b6040516101e0919061125f565b60405180910390f35b61020360048036038101906101fe9190610e70565b610b79565b604051610212939291906112aa565b60405180910390f35b61023560048036038101906102309190610e06565b610c2b565b60405161024291906111bd565b60405180910390f35b606080600060035467ffffffffffffffff811115610292577f4e487b7100000000000000000000000000000000000000000000000000000000600052604160045260246000fd5b6040519080825280602002602001820160405280156102c557816020015b60608152602001906001900390816102b05790505b509050600060035467ffffffffffffffff81111561030c577f4e487b7100000000000000000000000000000000000000000000000000000000600052604160045260246000fd5b60405190808252806020026020018201604052801561033a5781602001602082028036833780820191505090505b50905060005b60035481101561049c5760026000828152602001908152602001600020600101805461036b9061148c565b80601f01602080910402602001604051908101604052809291908181526020018280546103979061148c565b80156103e45780601f106103b9576101008083540402835291602001916103e4565b820191906000526020600020905b8154815290600101906020018083116103c757829003601f168201915b5050505050838281518110610422577f4e487b7100000000000000000000000000000000000000000000000000000000600052603260045260246000fd5b6020026020010181905250600260008281526020019081526020016000206002015482828151811061047d577f4e487b7100000000000000000000000000000000000000000000000000000000600052603260045260246000fd5b6020026020010181815250508080610494906114ef565b915050610340565b5081819350935050509091565b60008054906101000a900473ffffffffffffffffffffffffffffffffffffffff1673ffffffffffffffffffffffffffffffffffffffff163373ffffffffffffffffffffffffffffffffffffffff1614610537576040517f08c379a000000000000000000000000000000000000000000000000000000000815260040161052e9061121f565b60405180910390fd5b6001600460006101000a81548160ff02191690836002811115610583577f4e487b7100000000000000000000000000000000000000000000000000000000600052602160045260246000fd5b0217905550565b600460009054906101000a900460ff1681565b6000600160028111156105d9577f4e487b7100000000000000000000000000000000000000000000000000000000600052602160045260246000fd5b600460009054906101000a900460ff166002811115610621577f4e487b7100000000000000000000000000000000000000000000000000000000600052602160045260246000fd5b14610661576040517f08c379a0000000000000000000000000000000000000000000000000000000008152600401610658906111ff565b60405180910390fd5b6000600160003373ffffffffffffffffffffffffffffffffffffffff1673ffffffffffffffffffffffffffffffffffffffff1681526020019081526020016000209050600084101580156106b757506003548411155b6106f6576040517f08c379a00000000000000000000000000000000000000000000000000000000081526004016106ed906111df565b60405180910390fd5b600015158160010160003373ffffffffffffffffffffffffffffffffffffffff1673ffffffffffffffffffffffffffffffffffffffff16815260200190815260200160002060009054906101000a900460ff1615151461078b576040517f08c379a00000000000000000000000000000000000000000000000000000000081526004016107829061123f565b60405180910390fd5b6002600085815260200190815260200160002060020160008154809291906107b2906114ef565b9190505550828160000190805190602001906107cf929190610cd1565b5060018160010160003373ffffffffffffffffffffffffffffffffffffffff1673ffffffffffffffffffffffffffffffffffffffff16815260200190815260200160002060006101000a81548160ff0219169083151502179055507fb0fa784f6c9ce4625e023c4cb4b392b871163af5c58729e7a7b8f7cdaff54f17848460405161085b92919061127a565b60405180910390a1600191505092915050565b6000606060006002600085815260200190815260200160002060010180546108959061148c565b80601f01602080910402602001604051908101604052809291908181526020018280546108c19061148c565b801561090e5780601f106108e35761010080835404028352916020019161090e565b820191906000526020600020905b8154815290600101906020018083116108f157829003601f168201915b505050505090506000600260008681526020019081526020016000206002015490508082935093505050915091565b60008054906101000a900473ffffffffffffffffffffffffffffffffffffffff1681565b60008060009054906101000a900473ffffffffffffffffffffffffffffffffffffffff1673ffffffffffffffffffffffffffffffffffffffff163373ffffffffffffffffffffffffffffffffffffffff16146109f2576040517f08c379a00000000000000000000000000000000000000000000000000000000081526004016109e99061121f565b60405180910390fd5b60006002600060035481526020019081526020016000209050600354816000018190555082816001019080519060200190610a2e929190610cd1565b506000816002018190555060036000815480929190610a4c906114ef565b91905055507f2be308c1220be2d6ae99d47d9bc419e46f5ec900fe45ee50075716e8c40f4f2f83604051610a8091906111bd565b60405180910390a16001915050919050565b60008054906101000a900473ffffffffffffffffffffffffffffffffffffffff1673ffffffffffffffffffffffffffffffffffffffff163373ffffffffffffffffffffffffffffffffffffffff1614610b20576040517f08c379a0000000000000000000000000000000000000000000000000000000008152600401610b179061121f565b60405180910390fd5b6002600460006101000a81548160ff02191690836002811115610b6c577f4e487b7100000000000000000000000000000000000000000000000000000000600052602160045260246000fd5b0217905550565b60035481565b6002602052806000526040600020600091509050806000015490806001018054610ba29061148c565b80601f0160208091040260200160405190810160405280929190818152602001828054610bce9061148c565b8015610c1b5780601f10610bf057610100808354040283529160200191610c1b565b820191906000526020600020905b815481529060010190602001808311610bfe57829003601f168201915b5050505050908060020154905083565b6001602052806000526040600020600091509050806000018054610c4e9061148c565b80601f0160208091040260200160405190810160405280929190818152602001828054610c7a9061148c565b8015610cc75780601f10610c9c57610100808354040283529160200191610cc7565b820191906000526020600020905b815481529060010190602001808311610caa57829003601f168201915b5050505050905081565b828054610cdd9061148c565b90600052602060002090601f016020900481019282610cff5760008555610d46565b82601f10610d1857805160ff1916838001178555610d46565b82800160010185558215610d46579182015b82811115610d45578251825591602001919060010190610d2a565b5b509050610d539190610d57565b5090565b5b80821115610d70576000816000905550600101610d58565b5090565b6000610d87610d828461130d565b6112e8565b905082815260208101848484011115610d9f57600080fd5b610daa84828561144a565b509392505050565b600081359050610dc18161172f565b92915050565b600082601f830112610dd857600080fd5b8135610de8848260208601610d74565b91505092915050565b600081359050610e0081611746565b92915050565b600060208284031215610e1857600080fd5b6000610e2684828501610db2565b91505092915050565b600060208284031215610e4157600080fd5b600082013567ffffffffffffffff811115610e5b57600080fd5b610e6784828501610dc7565b91505092915050565b600060208284031215610e8257600080fd5b6000610e9084828501610df1565b91505092915050565b60008060408385031215610eac57600080fd5b6000610eba85828601610df1565b925050602083013567ffffffffffffffff811115610ed757600080fd5b610ee385828601610dc7565b9150509250929050565b6000610ef98383611019565b905092915050565b6000610f0d8383611117565b60208301905092915050565b610f22816113dd565b82525050565b6000610f338261135e565b610f3d8185611399565b935083602082028501610f4f8561133e565b8060005b85811015610f8b5784840389528151610f6c8582610eed565b9450610f778361137f565b925060208a01995050600181019050610f53565b50829750879550505050505092915050565b6000610fa882611369565b610fb281856113aa565b9350610fbd8361134e565b8060005b83811015610fee578151610fd58882610f01565b9750610fe08361138c565b925050600181019050610fc1565b5085935050505092915050565b611004816113ef565b82525050565b61101381611438565b82525050565b600061102482611374565b61102e81856113bb565b935061103e818560208601611459565b611047816115f4565b840191505092915050565b600061105d82611374565b61106781856113cc565b9350611077818560208601611459565b611080816115f4565b840191505092915050565b6000611098602b836113cc565b91506110a382611605565b604082019050919050565b60006110bb6029836113cc565b91506110c682611654565b604082019050919050565b60006110de6038836113cc565b91506110e9826116a3565b604082019050919050565b6000611101601b836113cc565b915061110c826116f2565b602082019050919050565b6111208161142e565b82525050565b61112f8161142e565b82525050565b600060208201905061114a6000830184610f19565b92915050565b6000604082019050818103600083015261116a8185610f28565b9050818103602083015261117e8184610f9d565b90509392505050565b600060208201905061119c6000830184610ffb565b92915050565b60006020820190506111b7600083018461100a565b92915050565b600060208201905081810360008301526111d78184611052565b905092915050565b600060208201905081810360008301526111f88161108b565b9050919050565b60006020820190508181036000830152611218816110ae565b9050919050565b60006020820190508181036000830152611238816110d1565b9050919050565b60006020820190508181036000830152611258816110f4565b9050919050565b60006020820190506112746000830184611126565b92915050565b600060408201905061128f6000830185611126565b81810360208301526112a18184611052565b90509392505050565b60006060820190506112bf6000830186611126565b81810360208301526112d18185611052565b90506112e06040830184611126565b949350505050565b60006112f2611303565b90506112fe82826114be565b919050565b6000604051905090565b600067ffffffffffffffff821115611328576113276115c5565b5b611331826115f4565b9050602081019050919050565b6000819050602082019050919050565b6000819050602082019050919050565b600081519050919050565b600081519050919050565b600081519050919050565b6000602082019050919050565b6000602082019050919050565b600082825260208201905092915050565b600082825260208201905092915050565b600082825260208201905092915050565b600082825260208201905092915050565b60006113e88261140e565b9050919050565b60008115159050919050565b60008190506114098261171b565b919050565b600073ffffffffffffffffffffffffffffffffffffffff82169050919050565b6000819050919050565b6000611443826113fb565b9050919050565b82818337600083830152505050565b60005b8381101561147757808201518184015260208101905061145c565b83811115611486576000848401525b50505050565b600060028204905060018216806114a457607f821691505b602082108114156114b8576114b7611596565b5b50919050565b6114c7826115f4565b810181811067ffffffffffffffff821117156114e6576114e56115c5565b5b80604052505050565b60006114fa8261142e565b91507fffffffffffffffffffffffffffffffffffffffffffffffffffffffffffffffff82141561152d5761152c611538565b5b600182019050919050565b7f4e487b7100000000000000000000000000000000000000000000000000000000600052601160045260246000fd5b7f4e487b7100000000000000000000000000000000000000000000000000000000600052602160045260246000fd5b7f4e487b7100000000000000000000000000000000000000000000000000000000600052602260045260246000fd5b7f4e487b7100000000000000000000000000000000000000000000000000000000600052604160045260246000fd5b6000601f19601f8301169050919050565b7f5468657265206973206e6f2063616e646964617465207769746820746865207360008201527f7065636966696564204944000000000000000000000000000000000000000000602082015250565b7f54686520656c656374696f6e206973206e6f742061637469766520617420746860008201527f6973206d6f6d656e740000000000000000000000000000000000000000000000602082015250565b7f4f6e6c7920746865206d6f64657261746f72206f662074686520656c6563746960008201527f6f6e2063616e2075736520746869732066756e6374696f6e0000000000000000602082015250565b7f596f752063616e206f6e6c7920766f7465206f6e652074696d65210000000000600082015250565b6003811061172c5761172b611567565b5b50565b611738816113dd565b811461174357600080fd5b50565b61174f8161142e565b811461175a57600080fd5b5056fea2646970667358221220fda05bee3d673829e36557fbda6e058b280d7b406de41e30084d39cd0083ffcd64736f6c63430008040033",
  "immutableReferences": {},
  "source": "//SPDX-License-Identifier: GPL-3.0\r\n \r\npragma solidity >=0.5.0 <0.9.0;\r\n\r\ncontract VotingContract{\r\n    address public moderator;\r\n    \r\n    struct Candidate {\r\n        uint256 id;\r\n        string  name;\r\n        uint256 voteCount;\r\n    }\r\n    \r\n    struct Voter {\r\n        string name;\r\n        mapping(address => bool)  hasVoted;\r\n    }\r\n    \r\n    mapping(address => Voter) public votes;\r\n    mapping(uint256 => Candidate) public candidateLookup; //candidates will be identified with an unique ID\r\n    uint256 public candidateCount; //Will be used to track the number of candidates\r\n    \r\n    enum State {beforeStart, running, halted} \r\n    State public electionState;\r\n    \r\n    event AddedCandidate(string _name);\r\n    event Voted( uint256 id, string _name);\r\n\r\n    \r\n    constructor () {\r\n        moderator = msg.sender;\r\n        electionState = State.beforeStart;\r\n        candidateCount = 0; //Not really necesary to initalize to zero as per solidity documentation -> A variable which is declared will have an initial default value whose byte-representation is all zeros. The default values of variables are the typical zero-state of whatever the type is. For example, the default value for a bool is false. The default value for the uint or int types is 0\r\n    }\r\n    \r\n    \r\n    modifier onlyModerator{\r\n        require(msg.sender == moderator, 'Only the moderator of the election can use this function');\r\n        _;\r\n    }\r\n    \r\n    modifier votingInProcess {\r\n        require(electionState == State.running, 'The election is not active at this moment');\r\n        _;\r\n    }\r\n    \r\n    \r\n    function addCandidate(string memory _name) public onlyModerator returns(bool){\r\n        Candidate storage newCandidate = candidateLookup[candidateCount];\r\n        newCandidate.id = candidateCount;\r\n        newCandidate.name = _name;\r\n        newCandidate.voteCount = 0;\r\n        candidateCount++;\r\n        emit AddedCandidate(_name);\r\n        return true;\r\n    }\r\n    \r\n    function getCandidate(uint256 _id) public view returns(uint256, string memory){\r\n       string memory name = candidateLookup[_id].name;\r\n       uint256 voteCount = candidateLookup[_id].voteCount;\r\n       return (voteCount, name);\r\n    }\r\n    \r\n    function getCandidates() external view returns(string[] memory, uint256[] memory){\r\n        string [] memory names = new string[](candidateCount);\r\n        uint256[] memory voteCounts = new uint[](candidateCount);\r\n        for (uint256 i = 0; i < candidateCount; i++) {\r\n            names[i] = candidateLookup[i].name;\r\n            voteCounts[i] = candidateLookup[i].voteCount;\r\n        }\r\n        return (names, voteCounts);\r\n\r\n    }\r\n    \r\n    \r\n    function startVoting() external onlyModerator {\r\n        electionState = State.running;\r\n    }\r\n    \r\n    function haltVoting() external onlyModerator {\r\n        electionState = State.halted;\r\n    }\r\n    \r\n    function vote(uint256 _id, string memory _name) public votingInProcess returns (bool){\r\n        Voter storage newVoter = votes[msg.sender];\r\n        require(_id >= 0 && _id <= candidateCount, 'There is no candidate with the specified ID');\r\n        require(newVoter.hasVoted[msg.sender] == false, 'You can only vote one time!');\r\n        candidateLookup[_id].voteCount++;\r\n        newVoter.name = _name;\r\n        newVoter.hasVoted[msg.sender] = true;\r\n        emit Voted(_id, _name);\r\n        return true;\r\n    }\r\n}",
  "sourcePath": "C:/Users/antonio.salazar/Desktop/Personal/voting_ethereum_dapp/contracts/VotingContract.sol",
  "compiler": {
    "name": "solc",
    "version": "0.8.4+commit.c7e474f2.Linux.g++"
  },
  "schemaVersion": "3.3.4",
  "updatedAt": "2021-05-12T04:49:35.296Z",
  "networkType": "ethereum",
  "devdoc": {
    "kind": "dev",
    "methods": {},
    "version": 1
  },
  "userdoc": {
    "kind": "user",
    "methods": {},
    "version": 1
  }
}